:1000000000308A003A280000831A0A28A500030E4F
:10001000A6000F288312A500030EA600A6140A0846
:10002000AD008A018313A50E0408A7002008A800CC
:100030002108A9002208AA002308AB002408AC006C
:1000400083128B1E25280B195328270884002808A3
:10005000A0002908A1002A08A2002B08A3002C0850
:10006000A4002D088A00260E83008312250EA618F0
:1000700083160900FF238316900000308A0053295D
:100080000A108A100A11820704347C340A341834A6
:100090007034113401343C34003410347B34323445
:1000A000073460347F34CF308505311C612831102E
:1000B0002E0887002E1F5E2805155F2805110516DE
:1000C0006A2831142F0887002F1F68280515692812
:1000D00005118516B20803196F28B203712807307D
:1000E000B20030083202031877288514782885106A
:1000F000B1100B118A11252847308400000803191C
:1001000090280130A100A001A00B8428A10B832816
:100110004A30A000A00B8A2800000000800B812834
:1001200000341030A000A301CD01CA0CC90C031C7F
:100130009F284B08A3070318CD0A4C08CD07CD0C08
:10014000A30CA20CA10CA00B95280A29A101A201C5
:10015000A001A3014C08031DB0284B080319CA28AD
:100160001030CD000310C90DCA0DA00DA30D4C0811
:100170002302031DBD284B082002031CC6284B0880
:10018000A002031CA3034C08A3020314A10DA20D9B
:10019000CD0BB22800001A293330430784009F1486
:1001A0009F18D02883161E088312CA0064304A02A2
:1001B000A0001E08A3000030031C0130A302200889
:1001C0008000C3080319E628C303E8280F30C300E2
:1001D000C701C601C80148080F3C031CF82833308A
:1001E000480784000008C6070318C70AC80AEB2896
:1001F000C70CC60CC70CC60CC70CC60CC70CC60C6B
:100200000F30C7054708CA004608C900CC01323084
:10021000CB0091282208C7002108C6003230C6074B
:100220000318C70A4708CA004608C900CC01643051
:10023000CB00A628210800344908A1014802031870
:1002400024294808A0003029A0010830CA00C80DA0
:10025000A00D490820020318A000A10DCA0B2729F0
:1002600000344608C8000A30C9001C212008AF002D
:100270004608C8000A30C9001C212108C8000A30FD
:10028000C9001C212008AE00CE293008063C031C02
:100290004C290230B0074D29B001851D4D2964302D
:1002A000C7007C20003484011F3083051F130030F9
:1002B0008316910007308312990083160508831274
:1002C00019088C11AE01AF01B001B101B201B30147
:1002D000B401B501B601B701B801B901BA01BB015A
:1002E000BC01BD01BE01BF01C001C101C2010F308F
:1002F000C30009308316850000308700013091006B
:1003000050309F00813083129F0083160108C0394E
:100310000238810083129001073099008316050886
:1003200003308312A000A00B932919088C118316A7
:10033000990183128B16C0308B040C30C600FA3042
:10034000C7007C20C60B9F292330C500C5080319B0
:10035000AE29CC202108C400C503A6297F30AE00F9
:10036000AF000430C600FA30C7007C20C60BB329AA
:10037000C501CC202108C400B114B118BD2945081D
:10038000133C031CD8294408633C0318CB29603074
:10039000AE00AF00D7294408C60031292E084020FE
:1003A000A100AE002F084020A100AF00C50AE3293C
:1003B0003230AE000730AF004508183C031CE2297C
:1003C000C50AE329C501851D45216430C7007C208D
:1003D000851D45216430C7007C20851D45213230B4
:0803E000C7007C20B92963006D
:02400E00D43F9D
:00000001FF
;PIC16F676
